:020000040800F2
:1000000000300020F52500081D25000829250008DE
:100010002F250008352500083B25000800000000BA
:100020000000000000000000000000004125000862
:100030004D2500080000000059250008652500082E
:1000400045260008452600084526000845260008E4
:1000500045260008452600084526000845260008D4
:1000600045260008452600084526000845260008C4
:1000700045260008452600084526000845260008B4
:1000800045260008452600084526000845260008A4
:100090004526000845260008452600084526000894
:1000A0004526000845260008452600084526000884
:1000B00045260008452600080000000045260008E7
:1000C000452600080000000000000000452600084A
:1000D00000000000452600084526000845260008C7
:1000E000452600084526000800000000000000002A
:1000F0000000000000000000000000000000000000
:1001000000000000000000000000000000000000EF
:1001100000000000000000004526000845260008F9
:1001200000000000000000000000000000000000CF
:1001300000000000000000000000000000000000BF
:100140004526000845260008000000004526000856
:1001500045260008452600084526000845260008D3
:1001600045260008452600080000000000000000A9
:10017000000000000000000000000000000000007F
:08018000000000004526000804
:1001880010B5054C237833B9044B13B10448AFF3C9
:1001980000800123237010BD3C04002000000000F3
:1001A8001028000808B5034B1BB103490348AFF3F7
:1001B800008008BD0000000040040020102800084E
:1001C80080B500AF084B1B68074A43F01003136063
:1001D800032000F02BF9002000F008F802F034F9B1
:1001E8000023184680BD00BF0020024080B582B0C1
:1001F80000AF7860124B1A68124B1B7819464FF4FF
:100208007A73B3FBF1F3B2FBF3F3184600F035F958
:100218000346002B01D001230EE07B680F2B0AD880
:10022800002279684FF0FF3000F00BF9064A7B682E
:100238001360002300E0012318460837BD4680BD3F
:1002480008000020040000200000002080B400AF57
:10025800054B1B781A46054B1B681344034A136069
:1002680000BFBD4680BC7047040000205804002031
:1002780080B400AF024B1B681846BD4680BC70476F
:100288005804002080B584B000AF7860FFF7F0FF15
:10029800B8607B68FB60FB68B3F1FF3F05D00A4B91
:1002A8001B781A46FB681344FB6000BFFFF7E0FFAA
:1002B8000246BB68D31AFA689A42F7D800BF00BF53
:1002C8001037BD4680BD00BF0400002080B485B053
:1002D80000AF78607B6803F00703FB600C4BDB68BA
:1002E800BB60BA684FF6FF031340BB60FB681A0295
:1002F800BB68134343F0BF6343F40033BB60044A55
:10030800BB68D36000BF1437BD4680BC704700BFD0
:1003180000ED00E080B400AF044BDB681B0A03F07B
:1003280007031846BD4680BC704700BF00ED00E0DB
:1003380080B483B000AF03463960FB7197F907308A
:10034800002B0BDA3B68DAB20C49FB7903F00F0398
:10035800043B1201D2B20B441A7609E03B68DAB2C8
:10036800074997F907301201D2B20B4483F80023EA
:1003780000BF0C37BD4680BC704700BF00ED00E0F1
:1003880000E100E080B489B000AFF860B9607A603D
:10039800FB6803F00703FB61FB69C3F10703042B48
:1003A80028BF0423BB61FB690433062B02D9FB6910
:1003B800033B00E000237B614FF0FF32BB6902FA88
:1003C80003F3DA43BB681A407B699A404FF0FF3168
:1003D8007B6901FA03F3D9437B680B401343184642
:1003E8002437BD4680BC704780B582B000AF7860C6
:1003F8007B68013BB3F1807F01D301230FE00A4AF8
:100408007B68013B53600F214FF0FF30FFF790FFEF
:10041800054B00229A60044B07221A6000231846F5
:100428000837BD4680BD00BF10E000E080B582B04F
:1004380000AF78607868FFF749FF00BF0837BD460E
:1004480080BD80B586B000AF0346B9607A60FB73A3
:1004580000237B61FFF75EFF78617A68B968786985
:10046800FFF790FF024697F90F3011461846FFF73D
:100478005FFF00BF1837BD4680BD80B582B000AFB2
:1004880078607868FFF7B0FF034618460837BD461E
:1004980080BD000080B487B000AF78603960002369
:1004A8007B610023FB6000233B614EE13B681A68D7
:1004B80001217B6901FA03F31340FB60FB68002B01
:1004C80000F040813B685B68022B03D03B685B68A7
:1004D800122B23D17B69DA087B68083253F8223063
:1004E8003B617B6903F007039B000F2202FA03F3C9
:1004F800DB433A6913403B613B681A697B6903F047
:1005080007039B0002FA03F33A6913433B617B69D3
:10051800DA087B680832396943F822107B681B685F
:100528003B617B695B00032202FA03F3DB433A6910
:1005380013403B613B685B6803F003027B695B0027
:1005480002FA03F33A6913433B617B683A691A601C
:100558003B685B68012B0BD03B685B68022B07D0BC
:100568003B685B68112B03D03B685B68122B30D16A
:100578007B689B683B617B695B00032202FA03F39B
:10058800DB433A6913403B613B68DA687B695B008F
:1005980002FA03F33A6913433B617B683A699A604C
:1005A8007B685B683B6101227B6902FA03F3DB43EA
:1005B8003A6913403B613B685B681B0903F0010221
:1005C8007B6902FA03F33A6913433B617B683A6932
:1005D8005A607B68DB683B617B695B00032202FA37
:1005E80003F3DB433A6913403B613B689A687B69D4
:1005F8005B0002FA03F33A6913433B617B683A698B
:10060800DA603B685B6803F08053002B00F09A8047
:10061800554B9B69544A43F001039361524B9B69C4
:1006280003F00103BB60BB68504A7B699B08023337
:1006380052F823303B617B6903F003039B000F22D0
:1006480002FA03F3DB433A6913403B617B68B3F179
:10065800904F13D07B68464A93420DD07B68454A39
:10066800934207D07B68444A934201D1032306E0B2
:10067800052304E0022302E0012300E000237A6955
:1006880002F00302920093403A6913433B613749F1
:100698007B699B0802333A6941F82320374B1B6872
:1006A8003B61FB68DB433A6913403B613B685B682D
:1006B80003F48033002B03D03A69FB6813433B6192
:1006C8002E4A3B6913602D4B5B683B61FB68DB433B
:1006D8003A6913403B613B685B6803F40033002BC5
:1006E80003D03A69FB6813433B61244A3B69536072
:1006F800224B9B683B61FB68DB433A6913403B61D3
:100708003B685B6803F48013002B03D03A69FB68ED
:1007180013433B61194A3B699360184BDB683B61A3
:10072800FB68DB433A6913403B613B685B6803F451
:100738000013002B03D03A69FB6813433B610F4A4F
:100748003B69D3607B6901337B613B681A687B69CD
:1007580022FA03F3002B7FF4A9AE00BF00BF1C37B9
:10076800BD4680BC704700BF001002400000014039
:100778000004004800080048000C0048000401403C
:1007880080B483B000AF78600B467B8013467B70E3
:100798007B78002B03D07A887B689A6102E07A889C
:1007A8007B689A6200BF0C37BD4680BC704700006A
:1007B80080B5ADF5007D00AF3B1D18603B1D1B6883
:1007C800002B02D1012300F0DABE3B1D1B681B6819
:1007D80003F00103002B00F06E81B54B5B6803F05A
:1007E8000C03042B0CD0B24B5B6803F00C03082BF2
:1007F8005AD1AF4B5B6803F48033B3F5803F53D1D4
:100808004FF40033C7F8F431D7F8F43193FAA3F36F
:10081800C7F8F031D7F8F031B3FA83F3DBB25B09EC
:10082800DBB243F00103DBB2012B02D1A04B1B6802
:1008380015E04FF40033C7F8EC31D7F8EC3193FAF0
:10084800A3F3C7F8E8314FF40033C7F8E431D7F819
:10085800E43193FAA3F3C7F8E031954B5B6A4FF4A0
:100868000032C7F8DC21D7F8DC2192FAA2F2C7F8E7
:10087800D821D7F8D821B2FA82F252B242F0200237
:1008880052B2D2B202F01F02012101FA02F2134061
:10089800002B00F00F813B1D1B685B68002B40F0AC
:1008A8000981012300F06BBE3B1D1B685B68B3F533
:1008B800803F06D17E4B1B687D4A43F4803313602A
:1008C80030E03B1D1B685B68002B0CD1784B1B6824
:1008D800774A23F480331360754B1B68744A23F4FA
:1008E800802313601EE03B1D1B685B68B3F5A02FD7
:1008F8000CD16F4B1B686E4A43F4802313606C4B1A
:100908001B686B4A43F4803313600BE0684B1B6829
:10091800674A23F480331360654B1B68644A23F4E9
:1009280080231360624BDB6A23F00F023B1D1B68B8
:100938009B685F491343CB623B1D1B685B68002BB8
:100948005AD0FFF795FCC7F8F8010AE0FFF790FCCA
:100958000246D7F8F831D31A642B02D9032300F0E2
:100968000EBE4FF40033C7F8D431D7F8D43193FA18
:10097800A3F3C7F8D031D7F8D031B3FA83F3DBB299
:100988005B09DBB243F00103DBB2012B02D1484B18
:100998001B6815E04FF40033C7F8CC31D7F8CC31D9
:1009A80093FAA3F3C7F8C8314FF40033C7F8C4313A
:1009B800D7F8C43193FAA3F3C7F8C0313C4B5B6A4C
:1009C8004FF40032C7F8BC21D7F8BC2192FAA2F242
:1009D800C7F8B821D7F8B821B2FA82F252B242F079
:1009E800200252B2D2B202F01F02012101FA02F231
:1009F8001340002BAAD05EE0FFF73AFCC7F8F801D5
:100A08000AE0FFF735FC0246D7F8F831D31A642B11
:100A180002D9032300F0B3BD4FF40033C7F8B43153
:100A2800D7F8B43193FAA3F3C7F8B031D7F8B03197
:100A3800B3FA83F3DBB25B09DBB243F00103DBB249
:100A4800012B02D11A4B1B6815E04FF40033C7F88D
:100A5800AC31D7F8AC3193FAA3F3C7F8A8314FF407
:100A68000033C7F8A431D7F8A43193FAA3F3C7F831
:100A7800A0310F4B5B6A4FF40032C7F89C21D7F8BE
:100A88009C2192FAA2F2C7F89821D7F89821B2FAD5
:100A980082F252B242F0200252B2D2B202F01F02E7
:100AA800012101FA02F21340002BAAD103E000BF92
:100AB8000010024000BF3B1D1B681B6803F00203C7
:100AC800002B00F07081D04B5B6803F00C03002B07
:100AD8000BD0CD4B5B6803F00C03082B6DD1CA4BD0
:100AE8005B6803F48033002B67D10223C7F8943185
:100AF800D7F8943193FAA3F3C7F89031D7F8903127
:100B0800B3FA83F3DBB25B09DBB243F00103DBB278
:100B1800012B02D1BC4B1B6813E00223C7F88C31B0
:100B2800D7F88C3193FAA3F3C7F888310223C7F8B2
:100B38008431D7F8843193FAA3F3C7F88031B24BE4
:100B48005B6A0222C7F87C21D7F87C2192FAA2F2CC
:100B5800C7F87821D7F87821B2FA82F252B242F077
:100B6800200252B2D2B202F01F02012101FA02F2AF
:100B78001340002B07D03B1D1B681B69012B02D0BB
:100B8800012300F0FCBCA04B1B6823F0F8023B1DBE
:100B98001B685969F823C7F87431D7F8743193FA88
:100BA800A3F3C7F87031D7F87031B3FA83F301FAB9
:100BB80003F3954913430B60F5E03B1D1B681B6964
:100BC800002B00F085800123C7F86C31D7F86C3111
:100BD80093FAA3F3C7F86831D7F86831B3FA83F307
:100BE80003F1845303F584139B001A460123136011
:100BF800FFF73EFBC7F8F8010AE0FFF739FB0246AA
:100C0800D7F8F831D31A022B02D9032300F0B7BC66
:100C18000223C7F86431D7F8643193FAA3F3C7F80D
:100C28006031D7F86031B3FA83F3DBB25B09DBB22A
:100C380043F00103DBB2012B02D1734B1B6813E0B5
:100C48000223C7F85C31D7F85C3193FAA3F3C7F8ED
:100C580058310223C7F85431D7F8543193FAA3F323
:100C6800C7F85031684B5B6A0222C7F84C21D7F8A5
:100C78004C2192FAA2F2C7F84821D7F84821B2FAD3
:100C880082F252B242F0200252B2D2B202F01F02F5
:100C9800012101FA02F21340002BAED05A4B1B6817
:100CA80023F0F8023B1D1B685969F823C7F8443143
:100CB800D7F8443193FAA3F3C7F84031D7F8403155
:100CC800B3FA83F301FA03F34F4913430B606AE065
:100CD8000123C7F83C31D7F83C3193FAA3F3C7F89E
:100CE8003831D7F83831B3FA83F303F1845303F575
:100CF80084139B001A4600231360FFF7B9FAC7F85C
:100D0800F8010AE0FFF7B4FA0246D7F8F831D31A27
:100D1800022B02D9032300F032BC0223C7F8343176
:100D2800D7F8343193FAA3F3C7F83031D7F8303114
:100D3800B3FA83F3DBB25B09DBB243F00103DBB246
:100D4800012B02D1304B1B6813E00223C7F82C316A
:100D5800D7F82C3193FAA3F3C7F828310223C7F840
:100D68002431D7F8243193FAA3F3C7F82031264B5E
:100D78005B6A0222C7F81C21D7F81C2192FAA2F25A
:100D8800C7F81821D7F81821B2FA82F252B242F005
:100D9800200252B2D2B202F01F02012101FA02F27D
:100DA8001340002BAED13B1D1B681B6803F00803E2
:100DB800002B00F0D8803B1D1B689B69002B67D077
:100DC8000123C7F81431D7F8143193FAA3F3C7F8FD
:100DD8001031D7F81031B3FA83F31A460B4B13448A
:100DE8009B001A4601231360FFF742FAC7F8F8017F
:100DF8000EE0FFF73DFA0246D7F8F831D31A022B76
:100E080006D90323BBE300BF0010024020819010E5
:100E18000223C7F80C31D7F80C3193FAA3F3C7F8BB
:100E280008310223C7F80431D7F8043193FAA3F242
:100E380007F580731A6007F1FC0302221A6007F1B4
:100E4800FC031B6893FAA3F207F1F8031A60A54B99
:100E58005A6A07F1F4030221196007F1F4031B68C9
:100E680093FAA3F107F1F003196007F1F0031B6887
:100E7800B3FA83F35BB243F060035BB2DBB203F017
:100E88001F03012101FA03F31340002BB1D06AE0DC
:100E980007F1EC0301221A6007F1EC031B6893FACF
:100EA800A3F207F1E8031A6007F1E8031B68B3FA35
:100EB80083F31A468C4B13449B001A460023136095
:100EC800FFF7D6F9C7F8F80109E0FFF7D1F90246AC
:100ED800D7F8F831D31A022B01D903234FE307F1CE
:100EE800E40302221A6007F1E4031B6893FAA3F2F1
:100EF80007F1E0031A6007F1DC0302221A6007F128
:100F0800DC031B6893FAA3F207F1D8031A6007F110
:100F1800D40302221A6007F1D4031B6893FAA3F2E0
:100F280007F1D0031A606F4B5A6A07F1CC0302210C
:100F3800196007F1CC031B6893FAA3F107F1C80302
:100F4800196007F1C8031B68B3FA83F35BB243F077
:100F580060035BB2DBB203F01F03012101FA03F364
:100F68001340002BB1D13B1D1B681B6803F0040321
:100F7800002B00F05981002387F8FF31594BDB69BA
:100F880003F08053002B12D1564BDB69554A43F0CE
:100F98008053D361534BDB6903F0805207F10C0394
:100FA8001A6007F10C031B68012387F8FF314F4BC8
:100FB8001B6803F48073002B1AD14C4B1B684B4AF7
:100FC80043F480731360FFF753F9C7F8F80109E099
:100FD800FFF74EF90246D7F8F831D31A642B01D936
:100FE8000323CCE2414B1B6803F48073002BEFD042
:100FF8003B1D1B68DB68012B06D13A4B1B6A394A3B
:1010080043F0010313622FE03B1D1B68DB68002BD4
:101018000CD1344B1B6A334A23F001031362314B62
:101028001B6A304A23F0040313621DE03B1D1B6852
:10103800DB68052B0CD12B4B1B6A2A4A43F00403AF
:101048001362284B1B6A274A43F0010313620BE023
:10105800244B1B6A234A23F001031362214B1B6AAA
:10106800204A23F0040313623B1D1B68DB68002B36
:101078006BD0FFF7FDF8C7F8F8010BE0FFF7F8F8B9
:101088000246D7F8F831D31A41F28832934201D98F
:10109800032374E207F1C40302221A6007F1C403B0
:1010A8001B6893FAA3F207F1C0031A6007F1BC03A7
:1010B80002221A6007F1BC031B6893FAA3F207F136
:1010C800B8031A6007F1B8031B68B3FA83F3DBB2FD
:1010D8005B09DBB243F00203DBB2022B08D1014B00
:1010E8001B6A13E00010024020819010007000403D
:1010F80007F1B40302221A6007F1B4031B6893FADC
:10110800A3F207F1B0031A60BB4B5B6A07F1AC02AC
:101118000221116007F1AC02126892FAA2F107F1FC
:10112800A802116007F1A8021268B2FA82F252B25C
:1011380042F0400252B2D2B202F01F02012101FA7B
:1011480002F21340002B99D064E0FFF791F8C7F83A
:10115800F8010BE0FFF78CF80246D7F8F831D31AFC
:1011680041F28832934201D9032308E207F1A4032C
:1011780002221A6007F1A4031B6893FAA3F207F18D
:10118800A0031A6007F19C0302221A6007F19C036E
:101198001B6893FAA3F207F198031A6007F1980302
:1011A8001B68B3FA83F3DBB25B09DBB243F00203DB
:1011B800DBB2022B02D1904B1B6A0DE007F19403BE
:1011C80002221A6007F194031B6893FAA3F207F14D
:1011D80090031A60884B5B6A07F18C020221116048
:1011E80007F18C02126892FAA2F107F188021160E5
:1011F80007F188021268B2FA82F252B242F0400253
:1012080052B2D2B202F01F02012101FA02F21340D7
:10121800002B9FD197F8FF31012B05D1764BDB6965
:10122800754A23F08053D3613B1D1B68DB69002B93
:1012380000F0A481704B5B6803F00C03082B00F0EE
:101248009B813B1D1B68DB69022B40F0138107F172
:1012580084034FF080721A6007F184031B6893FAC5
:10126800A3F207F180031A6007F180031B68B3FA41
:1012780083F303F1845303F584139B001A46002378
:101288001360FEF7F5FFC7F8F80109E0FEF7F0FF75
:101298000246D7F8F831D31A022B01D903236EE19D
:1012A80007F17C034FF000721A6007F17C031B689A
:1012B80093FAA3F207F178031A6007F178031B6821
:1012C800B3FA83F3DBB25B09DBB243F00103DBB2B1
:1012D800012B02D1484B1B681BE007F174034FF048
:1012E80000721A6007F174031B6893FAA3F207F1FE
:1012F80070031A6007F16C034FF000721A6007F16F
:101308006C031B6893FAA3F207F168031A603A4B5F
:101318005B6A07F164024FF00071116007F1640223
:10132800126892FAA2F107F16002116007F16002F7
:101338001268B2FA82F252B242F0200252B2D2B22B
:1013480002F01F02012101FA02F21340002B9DD185
:10135800294B5B6823F474123B1D1B68596A3B1DBB
:101368001B681B6A0B43244913434B6007F15C035A
:101378004FF080721A6007F15C031B6893FAA3F2BE
:1013880007F158031A6007F158031B68B3FA83F38F
:1013980003F1845303F584139B001A460123136059
:1013A800FEF766FFC7F8F80109E0FEF761FF02469D
:1013B800D7F8F831D31A022B01D90323DFE007F15C
:1013C80054034FF000721A6007F154031B6893FA34
:1013D800A3F207F150031A6007F150031B68B3FA30
:1013E80083F3DBB25B09DBB243F00103DBB2012B11
:1013F80004D1014B1B681DE00010024007F14C03AB
:101408004FF000721A6007F14C031B6893FAA3F2BD
:1014180007F148031A6007F144034FF000721A609D
:1014280007F144031B6893FAA3F207F140031A601B
:10143800554B5B6A07F13C024FF00071116007F1F0
:101448003C02126892FAA2F107F13802116007F122
:1014580038021268B2FA82F252B242F0200252B254
:10146800D2B202F01F02012101FA02F21340002B4E
:101478009BD083E007F134034FF080721A6007F1C4
:1014880034031B6893FAA3F207F130031A6007F1DB
:1014980030031B68B3FA83F303F1845303F5841311
:1014A8009B001A4600231360FEF7E2FEC7F8F80116
:1014B80009E0FEF7DDFE0246D7F8F831D31A022B11
:1014C80001D903235BE007F12C034FF000721A6087
:1014D80007F12C031B6893FAA3F207F128031A609B
:1014E80007F128031B68B3FA83F3DBB25B09DBB2AD
:1014F80043F00103DBB2012B02D1234B1B681BE035
:1015080007F124034FF000721A6007F124031B68E7
:1015180093FAA3F207F120031A6007F11C034FF0B6
:1015280000721A6007F11C031B6893FAA3F207F113
:1015380018031A60144B5B6A07F114024FF000712C
:10154800116007F11402126892FAA2F107F1100271
:10155800116007F110021268B2FA82F252B242F038
:10156800200252B2D2B202F01F02012101FA02F2A5
:101578001340002B9DD101E0012300E00023184611
:1015880007F50077BD4680BD0010024080B59EB0CB
:1015980000AF7860396000237B677B68002B01D13E
:1015A800012364E1924B1B6803F007033A689A42EF
:1015B80010D98F4B1B6823F007028D493B681343F2
:1015C8000B608B4B1B6803F007033A689A4201D003
:1015D80001234CE17B681B6803F00203002B08D051
:1015E800844B5B6823F0F0027B689B688149134356
:1015F8004B607B681B6803F00103002B00F0DF8061
:101608007B685B68012B3DD14FF400333B673B6F30
:1016180093FAA3F3FB66FB6EB3FA83F3DBB25B09C1
:10162800DBB243F00103DBB2012B02D1714B1B6823
:101638000FE04FF40033BB66BB6E93FAA3F37B66EF
:101648004FF400333B663B6E93FAA3F3FB65694B9B
:101658005B6A4FF40032BA65BA6D92FAA2F27A6503
:101668007A6DB2FA82F252B242F0200252B2D2B28B
:1016780002F01F02012101FA02F21340002B7DD172
:101688000123F4E07B685B68022B3DD14FF00073C7
:101698003B653B6D93FAA3F3FB64FB6CB3FA83F3EE
:1016A800DBB25B09DBB243F00103DBB2012B02D1F1
:1016B800504B1B680FE04FF00073BB64BB6C93FA90
:1016C800A3F37B644FF000733B643B6C93FAA3F382
:1016D800FB63484B5B6A4FF00072BA63BA6B92FACD
:1016E800A2F27A637A6BB2FA82F252B242F0200224
:1016F80052B2D2B202F01F02012101FA02F21340E3
:10170800002B3BD10123B2E002233B633B6B93FAEE
:10171800A3F3FB62FB6AB3FA83F3DBB25B09DBB2C8
:1017280043F00103DBB2012B02D1324B1B680DE001
:101738000223BB62BB6A93FAA3F37B6202233B6278
:101748003B6A93FAA3F3FB612A4B5B6A0222BA61F4
:10175800BA6992FAA2F27A617A69B2FA82F252B25C
:1017680042F0200252B2D2B202F01F02012101FA65
:1017780002F21340002B01D1012378E01D4B5B6876
:1017880023F003027B685B681A4913434B60FEF73A
:101798006FFD78670AE0FEF76BFD02467B6FD31A90
:1017A80041F28832934201D9032360E0114B5B6810
:1017B80003F00C027B685B689B009A42EBD10C4BF0
:1017C8001B6803F007033A689A4215D2084B1B6856
:1017D80023F0070206493B6813430B60044B1B6860
:1017E80003F007033A689A4206D001233FE000BF9E
:1017F80000200240001002407B681B6803F00403CD
:10180800002B08D01C4B5B6823F4E0627B68DB6824
:10181800194913434B607B681B6803F00803002BCE
:1018280009D0154B5B6823F460527B681B69DB00A9
:10183800114913434B6000F025F801460E4B5B68D5
:1018480003F0F002F0233B613B6993FAA3F3FB60DA
:10185800FB68B3FA83F322FA03F3084AD35C21FA4C
:1018680003F3074A13600020FEF7C0FC0023184664
:101878007837BD4680BD00BF0010024048280008E8
:101888000800002080B48BB000AF0023FB61002368
:10189800BB6100237B6200237B6100233B62284BF2
:1018A8005B68FB61FB6903F00C03042B02D0082B77
:1018B80003D03CE0234B3B623CE0FB6903F470122D
:1018C8004FF47013BB60BB6893FAA3F37B607B682B
:1018D800B3FA83F322FA03F31B4AD35C7B61184BF8
:1018E800DB6A03F00F020F233B613B6993FAA3F312
:1018F800FB60FB68B3FA83F322FA03F3134AD35C61
:10190800BB61FB6903F48033002B08D00D4ABB6927
:10191800B2FBF3F27B6902FB03F37B6204E07B69B1
:101928000B4A02FB03F37B627B6A3B6202E0054BD6
:101938003B6200BF3B6A18462C37BD4680BC7047E7
:101948000010024000127A002828000838280008F1
:1019580000093D0080B400AF024B1B681846BD4625
:1019680080BC70470800002080B582B000AFFFF748
:10197800F1FF01460B4B5B6803F4E0624FF4E06350
:101988007B607B6893FAA3F33B603B68B3FA83F30D
:1019980022FA03F3044AD35C21FA03F31846083702
:1019A800BD4680BD001002405828000880B582B0AE
:1019B80000AFFFF7CFFF01460B4B5B6803F46052A3
:1019C8004FF460537B607B6893FAA3F33B603B68FA
:1019D800B3FA83F322FA03F3044AD35C21FA03F33C
:1019E80018460837BD4680BD001002405828000838
:1019F80080B592B000AF786000233B640023FB639E
:101A08007B681B6803F48033002B00F0CF80002331
:101A180087F847308D4BDB6903F08053002B0ED1DC
:101A28008A4BDB69894A43F08053D361874BDB6972
:101A380003F08053BB60BB68012387F84730844BB1
:101A48001B6803F48073002B18D1814B1B68804AF4
:101A580043F480731360FEF70BFC386408E0FEF76C
:101A680007FC02463B6CD31A642B01D90323E9E037
:101A7800774B1B6803F48073002BF0D0734B1B6A01
:101A880003F44073FB63FB6B002B7CD07B685B68C3
:101A980003F44073FA6B9A4275D06C4B1B6A23F4BB
:101AA8004073FB634FF480333B633B6B93FAA3F3C0
:101AB800FB62FB6AB3FA83F31A46664B13449B0036
:101AC8001A46012313604FF48033BB63BB6B93FA50
:101AD800A3F37B637B6BB3FA83F31A465D4B134422
:101AE8009B001A4600231360584AFB6B1362FB6B7A
:101AF80003F00103002B46D0FEF7BAFB38640AE076
:101B0800FEF7B6FB02463B6CD31A41F28832934289
:101B180001D9032396E00223BB62BB6A93FAA3F3BD
:101B28007B6202233B623B6A93FAA3F3FB61FB6986
:101B3800B3FA83F3DBB25B09DBB243F00203DBB237
:101B4800022B02D1414B1B6A07E00223BB61BB6930
:101B580093FAA3F37B613D4B5B6A02223A613A69CF
:101B680092FAA2F2FA60FA68B2FA82F252B242F03B
:101B7800400252B2D2B202F01F02012101FA02F26F
:101B88001340002BBCD0314B1B6A23F440727B6896
:101B98005B682E4913430B6297F84730012B05D138
:101BA8002A4BDB69294A23F08053D3617B681B6881
:101BB80003F00103002B08D0244B1B6B23F0030216
:101BC8007B689B68214913430B637B681B6803F0A0
:101BD8002003002B08D01D4B1B6B23F010027B68E1
:101BE800DB681A4913430B637B681B6803F08003A7
:101BF800002B08D0154BDB6A23F4F8727B681B694D
:101C080012491343CB627B681B6803F48053002B93
:101C180008D00E4B1B6B23F480727B685B690B4901
:101C280013430B637B681B6803F48043002B08D0C5
:101C3800064B1B6B23F480527B689B690349134353
:101C48000B63002318464837BD4680BD001002408C
:101C5800007000400081901080B582B000AF7860BD
:101C68007B68002B01D1012343E07B6893F869303E
:101C7800DBB2002B06D17B68002283F868207868E5
:101C880000F004FC7B68242283F869207B681B68C9
:101C98001A687B681B6822F001021A60786800F0F5
:101CA8002DF80346012B01D1012322E07B685B6AF2
:101CB800002B02D0786800F085F97B681B685A68A9
:101CC8007B681B6822F490425A607B681B689A689C
:101CD8007B681B6822F02A029A607B681B681A6876
:101CE8007B681B6842F001021A60786800F00BFA02
:101CF800034618460837BD4680BD000080B586B04B
:101D080000AF78600023FB601023FB7500237B8104
:101D18000023BB820023FB747B689A687B681B697D
:101D28001A437B685B691A437B68DB691343FB6072
:101D38007B681B681A689E4B13407A681268F968BA
:101D48000B4313607B681B685B6823F440517B6816
:101D5800DA687B681B680A435A607B689A697B6803
:101D68001B6A1343FB607B681B689B6823F4306124
:101D78007B681B68FA680A439A607B681B688D4A0F
:101D8800934220D18C4B1B6B03F00303032B17D812
:101D980001A252F823F000BFB11D0008BD1D0008C4
:101DA800C31D0008B71D00080023FB751DE00223B2
:101DB800FB751AE00423FB7517E00823FB7514E094
:101DC8001023FB7511E07B681B687C4A934202D1A3
:101DD8000023FB7509E07B681B68794A934202D1AE
:101DE8000023FB7501E01023FB757B68DB69B3F505
:101DF800004F6ED1FB7D082B56D801A252F823F074
:101E08002D1E0008491E0008651E0008B11E0008A6
:101E18007F1E0008B11E0008B11E0008B11E000890
:101E28009B1E0008FFF7A0FD03465A007B685B680D
:101E38005B081A447B685B68B2FBF3F3BB8236E04D
:101E4800FFF7B4FD03465A007B685B685B081A44D9
:101E58007B685B68B2FBF3F3BB8228E07B685B6856
:101E68005B0803F5740303F510537A685268B3FBF3
:101E7800F2F3BB821BE0FFF705FD03465A007B68BF
:101E88005B685B081A447B685B68B2FBF3F3BB8250
:101E98000DE07B685B685B0803F580327B685B68F4
:101EA800B2FBF3F3BB8202E00123FB7400BFBB8AE1
:101EB80023F00F037B81BB8A5B109BB203F00703FF
:101EC8009AB27B8913437B817B681B687A89DA60C5
:101ED80069E0FB7D082B63D801A252F823F000BF0C
:101EE8000D1F00082D1F00084D1F0008A91F00081E
:101EF8006D1F0008A91F0008A91F0008A91F0008D6
:101F08008D1F0008FFF730FD02467B685B685B08A1
:101F18001A447B685B68B2FBF3F39AB27B681B6870
:101F2800DA6040E0FFF742FD02467B685B685B08C9
:101F38001A447B685B68B2FBF3F39AB27B681B6850
:101F4800DA6030E07B685B685B0803F5F40303F54F
:101F580090537A685268B3FBF2F39AB27B681B68B5
:101F6800DA6020E0FFF78EFC02467B685B685B085E
:101F78001A447B685B68B2FBF3F39AB27B681B6810
:101F8800DA6010E07B685B685B0803F500427B68F9
:101F98005B68B2FBF3F39AB27B681B68DA6002E015
:101FA8000123FB7400BFFB7C18461837BD4680BD73
:101FB800F369FFEF00380140001002400044004080
:101FC8000048004080B483B000AF78607B685B6AEB
:101FD80003F00103002B0AD07B681B685B6823F4BD
:101FE80000317B689A6A7B681B680A435A607B6881
:101FF8005B6A03F00203002B0AD07B681B685B68EE
:1020080023F480317B68DA6A7B681B680A435A606C
:102018007B685B6A03F00403002B0AD07B681B68AB
:102028005B6823F480217B681A6B7B681B680A4312
:102038005A607B685B6A03F00803002B0AD07B6850
:102048001B685B6823F400417B685A6B7B681B68DC
:102058000A435A607B685B6A03F01003002B0AD0BE
:102068007B681B689B6823F480517B689A6B7B684C
:102078001B680A439A607B685B6A03F02003002BA5
:102088000AD07B681B689B6823F400517B68DA6B75
:102098007B681B680A439A607B685B6A03F04003AD
:1020A800002B1AD07B681B685B6823F480117B685F
:1020B8001A6C7B681B680A435A607B681B6CB3F513
:1020C800801F0AD17B681B685B6823F4C0017B68AA
:1020D8005A6C7B681B680A435A607B685B6A03F02A
:1020E8008003002B0AD07B681B685B6823F40021FF
:1020F8007B689A6C7B681B680A435A6000BF0C3780
:10210800BD4680BC704780B586B002AF78600023BA
:10211800FB607B680022DA66FEF7AAF8F8607B6845
:102128001B681B6803F00803082B0ED16FF07E4371
:102138000093FB6800224FF40011786800F02CF837
:102148000346002B01D0032322E07B681B681B6831
:1021580003F00403042B0ED16FF07E430093FB6859
:1021680000224FF48001786800F016F80346002B2F
:1021780001D003230CE07B68202283F869207B6868
:10218800202283F86A207B68002283F868200023D5
:1021980018461037BD4680BD80B584B000AFF860E2
:1021A800B9603B601346FB712CE0BB69B3F1FF3F9C
:1021B80028D0BB69002B07D0FEF75AF802463B68C7
:1021C800D31ABA699A421DD2FB681B681A68FB6861
:1021D8001B6822F4D0721A60FB681B689A68FB6857
:1021E8001B6822F001029A60FB68202283F86920AC
:1021F800FB68202283F86A20FB68002283F86820A5
:1022080003230FE0FB681B68DA69BB681340BA68F0
:102218009A420CBF01230023DBB21A46FB799A428B
:10222800C3D0002318461037BD4680BD80B500AF27
:10223800FDF7C6FF00F01CF800F09EF800F06CF8FF
:102248004FF47A70FEF71EF800224FF480510748C9
:10225800FEF796FA4FF47A70FEF714F801224FF45D
:1022680080510248FEF78CFAEAE700BF00040048F4
:1022780080B596B000AF07F1300328220021184638
:1022880000F002FA07F11C0300221A605A609A60F3
:10229800DA601A613B4600221A605A609A60DA6076
:1022A8001A615A619A6102233B6301233B6410233C
:1022B8007B640023FB6407F130031846FEF778FAC5
:1022C8000346002B01D000F0B9F80F23FB6100236F
:1022D8003B6200237B620023BB620023FB6207F1A1
:1022E8001C0300211846FFF751F90346002B01D0C3
:1022F80000F0A4F801233B600023BB603B4618466E
:10230800FFF776FB0346002B01D000F097F800BFDB
:102318005837BD4680BD000080B500AF144B154A44
:102328001A60134B4FF416425A60114B00229A6000
:102338000F4B0022DA600E4B00221A610C4B0C2264
:102348005A610B4B00229A61094B0022DA61084B53
:1023580000221A62064B00225A620548FFF77CFCED
:102368000346002B01D000F069F800BF80BD00BF14
:102378005C0400200038014080B588B000AF07F148
:102388000C0300221A605A609A60DA601A61294BBD
:102398005B69284A43F400335361264B5B6903F4B5
:1023A8000033BB60BB68234B5B69224A43F40023BC
:1023B8005361204B5B6903F400237B607B681D4BF2
:1023C8005B691C4A43F4802353611A4B5B6903F42D
:1023D80080233B603B68002220214FF09040FEF7AD
:1023E800CFF900224FF480511348FEF7C9F9202392
:1023F800FB6001233B6100237B610023BB6107F184
:102408000C0319464FF09040FEF744F84FF4805300
:10241800FB6001233B6100237B610023BB6107F163
:102428000C0319460448FEF735F800BF2037BD46AF
:1024380080BD00BF001002400004004880B400AF17
:1024480000BFBD4680BC704780B483B000AF0E4B60
:102458009B690D4A43F0010393610B4B9B6903F0A1
:1024680001037B607B68084BDB69074A43F08053B4
:10247800D361054BDB6903F080533B603B6800BFC9
:102488000C37BD4680BC70470010024080B58AB04A
:1024980000AF786007F1140300221A605A609A604E
:1024A800DA601A617B681B68174A934227D1174B79
:1024B8009B69164A43F480439361144B9B6903F468
:1024C80080433B613B69114B5B69104A43F400232D
:1024D80053610E4B5B6903F40023FB60FB683023F8
:1024E8007B610223BB610023FB6103233B6207235B
:1024F8007B6207F1140319460548FDF7CBFF00BFBF
:102508002837BD4680BD00BF00380140001002409A
:102518000008004880B400AF00BFBD4680BC7047CB
:1025280080B400AFFEE780B400AFFEE780B400AF30
:10253800FEE780B400AFFEE780B400AF00BFBD4641
:1025480080BC704780B400AF00BFBD4680BC7047F8
:1025580080B400AF00BFBD4680BC704780B500AFF7
:10256800FDF774FE00BF80BD80B400AF1B4B1B6835
:102578001A4A43F001031360184B5A681749184B5D
:1025880013404B60154B1B68144A23F0847323F4E3
:1025980080331360114B1B68104A23F480231360A7
:1025A8000E4B5B680D4A23F4FE0353600B4BDB6A4A
:1025B8000A4A23F00F03D362084B1A6B0749094BE9
:1025C80013400B63054B00229A60074B4FF00062E3
:1025D8009A6000BFBD4680BC704700BF0010024033
:1025E8000CC07FF8CCFC00FF00ED00E0DFF834D031
:1025F800002103E00C4B5B58435004310B480C4B53
:1026080042189A42F6D30B4A02E0002342F8043BF0
:10261800094B9A42F9D3FFF7A7FF00F011F8FFF72B
:1026280005FEFEE7003000207028000800000020AA
:102638003C0400203C040020F0040020FEE70000D9
:1026480070B50D4E0D4D761BB61006D0002455F80A
:10265800043B01349847A642F9D1094E094D761B2F
:1026680000F0D2F8B61006D0002455F8043B013427
:102678009847A642F9D170BD64280008642800086C
:102688006C28000864280008F0B4860746D0541E59
:10269800002A3CD0CAB2034601E0013C37D303F814
:1026A800012B9D07F9D1032C2AD9CDB245EA05257E
:1026B8000F2C45EA054534D9A4F1100222F00F0C7D
:1026C80003F120071609674403F1100242E9045593
:1026D80042E902551032BA42F8D1721C14F00C0FBC
:1026E80003EB021204F00F0613D0331F23F0030389
:1026F8000433134442F8045B9342FBD106F003040D
:102708002CB1CAB21C4403F8012B9C42FBD1F0BC8B
:10271800704734461346002CF3D1F8E714460346B5
:10272800C1E71A462646E0E7024B13B1024800F01B
:1027380005B8704700000000512700080023014633
:102748001A46184600F01AB838B5084B084D5B1BF6
:102758009C1007D0043B1D44013C55F804399847A8
:10276800002CF9D1BDE8384000F054B870280008B2
:102778006C280008704700BF704700BF2DE9F0477C
:10278800DFF880A00646DAF8000098460F46914622
:10279800FFF7F0FF1A4B1B68D3F8484124B365686C
:1027A8001F2D26DC5EB9AB1C0135DAF80000656028
:1027B80044F82370FFF7E0FF0020BDE8F08704EB42
:1027C80085030121C3F88890D4F88821A9400A43D9
:1027D800022EC4F88821C3F80881E4D1D4F88C31DA
:1027E8001943C4F88C11DEE703F5A674C3F8484111
:1027F800D5E7DAF80000FFF7BFFF4FF0FF30DCE75E
:102808006028000838040020F8B500BFF8BC08BCF0
:102818009E467047F8B500BFF8BC08BC9E46704796
:1028280002030405060708090A0B0C0D0E0F101009
:102838000102030405060708090A0B0C0D0E0F1008
:102848000000000000000000010203040607080958
:0C2858000000000001020304100000203A
:0828640031270008AD01000856
:04286C0089010008D6
:10287000100000000100000000127A0000000000BB
:1028800000000000FC02002064030020CC030020B4
:102890000000000000000000000000000000000038
:1028A0000000000000000000000000000000000028
:1028B0000000000000000000000000000000000018
:1028C0000000000000000000000000000000000008
:1028D00000000000000000000000000000000000F8
:1028E00000000000000000000000000000000000E8
:1028F00000000000000000000000000000000000D8
:1029000000000000000000000000000000000000C7
:1029100000000000000000000000000000000000B7
:1029200000000000000000000100000000000000A6
:102930000E33CDAB34126DE6ECDE05000B0000006B
:102940000000000000000000000000000000000087
:102950000000000000000000000000000000000077
:102960000000000000000000000000000000000067
:102970000000000000000000000000000000000057
:0C2CA0000000000000000000CC04002038
:04000005080025F5D5
:00000001FF
